:100000000C9434000C9451000C9451000C94510049
:100010000C9451000C9451000C9451000C9451001C
:100020000C9451000C9451000C9451000C9451000C
:100030000C9451000C9451000C9451000C945100FC
:100040000C9451000C9451000C9451000C945100EC
:100050000C9451000C9451000C9451000C945100DC
:100060000C9451000C94510011241FBECFEFD8E026
:10007000DEBFCDBF12E0A0E0B1E0E2EDF8E002C0EB
:1000800005900D92AA39B107D9F722E0AAE9B2E0AA
:1000900001C01D92AB39B207E1F70E94C9030C946D
:1000A00067040C94000087B18E7F87B9EEE7F0E01B
:1000B00080818160808380E480937C0087E88093E6
:1000C0007A000895EAE7F0E080818064808380917F
:1000D0007A0086FDFCCF8091780090917900089598
:1000E0001092C50087E68093C40088E18093C10028
:1000F00086E08093C20008959091C00095FFFCCFE8
:100100008093C6000895CF93DF93EC0103C00E9453
:100110007C00219688818111FACFDF91CF910895DB
:100120008091C000881F8827881F08958091C6008D
:10013000089580E091E00E94830081E191E00E94B7
:1001400083008BE291E00E94830086E491E00E94AC
:1001500083008FE591E00E9483000895F999FECF16
:1001600092BD81BD8FB381608FBB80B50895F99931
:10017000FECF92BD81BD60BD8FB384608FBB8FB356
:1001800082608FBB089580E090E00E94AE008436CC
:1001900008F086E108951092B90088E48093B800D1
:1001A00084E08093BC00089520E63AEE02C021501E
:1001B00031098091BC0088231CF021153105B9F765
:1001C00081E0232B09F480E00895CF93DF93C82FBB
:1001D000D62F84EA8093BC000E94D400882309F1C2
:1001E000CC0FC093BB0084E88093BC000E94D40075
:1001F0008823B9F08091B900887F883129F084E99B
:100200008093BC0080E00DC0D093BB0084E8809355
:10021000BC000E94D400882321F084E98093BC00B4
:1002200081E0DF91CF910895682F686087E20E9496
:10023000E500089584B1816084B98AB180648AB987
:1002400085B18E7F85B983E884BD83E085BD17BC09
:10025000089570E085369105B8F49B012750310967
:10026000281739079CF4235F3F4F2817390784F478
:10027000255F3F4F281739076CF4645E7F4F68177E
:10028000790754F083E0089585E0089580E00895AB
:1002900081E0089582E0089584E0089595B19E7FFD
:1002A00095B917BC823069F018F4882331F00895AD
:1002B000833051F0843059F0089585B1816085B95B
:1002C000089589E587BD089586EA87BD08958FEF73
:1002D00087BD0895823071F028F4882341F0813081
:1002E000A9F011C0833049F0843051F00CC081E78F
:1002F00091E0089582E891E008958CE891E00895F6
:1003000087E991E0089581EA91E008958AE791E014
:100310000895833051F0843021F0823021F483E25B
:10032000089584E6089580E0089581E40895CF92C9
:10033000DF92EF92FF92CF93C12CD12C7601C0E0D7
:100340000DC00E946200C80ED91EE11CF11C8FE393
:100350009FE10197F1F700C00000CF5FCA3088F33A
:10036000C701B6012AE030E040E050E00E940104FD
:1003700044275527A4EFB1E00E94230461507E4F2B
:100380008F4F9F4F2FEF33E040E050E00E94010479
:10039000C901CF91FF90EF90DF90CF900895CF9358
:1003A000C82F84600E94140185E08A95F1F700004F
:1003B0008C2F8B7F0E94140187EC90E00197F1F75E
:1003C00000C00000CF910895CF93C82FC295C07F81
:1003D0006111C1608C2F0E9414018C2F0E94CF01EB
:1003E000CF910895CF93DF9390919A02992359F07A
:1003F000D62FC82F82958F700E94E4016D2F8C2F0D
:100400008F700E94E401DF91CF91089560E00E9417
:10041000F20108958111605C862F80680E940602B7
:10042000089561E00E94F2010895CF93DF93EC01FB
:1004300003C00E941102219688818111FACFDF91B9
:10044000CF910895CF9360E00E940A02C0E004C0FB
:1004500080E20E941102CF5FC031D0F3CF910895A6
:100460002FEF80E792E0215080409040E1F700C0FC
:10047000000080E00E94140180939A02882371F1A9
:1004800060E083E00E94E4018FE19EE40197F1F7D0
:1004900000C0000060E083E00E94E40187E592E094
:1004A0000197F1F700C0000060E083E00E94E401E2
:1004B00060E082E00E94E40188E20E9406028CE093
:1004C0000E94060286E00E94060281E00E94060267
:1004D0008FE39FE10197F1F700C000000895CF93EB
:1004E000DF9300D000D000D0CDB7DEB74AE0BE0128
:1004F0006F5F7F4F0E943D04CE0101960E948300F2
:1005000026960FB6F894DEBF0FBECDBFDF91CF9118
:100510000895CF92DF92EF92FF920F931F93CF93A4
:10052000DF936C01C62F142F01E0411100E08EEA29
:1005300091E00E948300C6010E946F028CEB91E063
:100540000E948300D0E0CE010E946F028FEC91E008
:100550000E948300812F0E946A017C010E94830017
:100560008EE091E00E9483008DED91E00E94830077
:10057000C6010E946F028CE20E947C00CE010E94A4
:100580006F028CE20E947C00802F90E00E946F023C
:100590008CE20E947C00812F0E94890190E00E94E1
:1005A0006F028CE20E947C00C7010E9483008EE0F3
:1005B00091E00E948300DF91CF911F910F91FF90F6
:1005C000EF90DF90CF900895CF93DF93EC010E94DE
:1005D0009000882309F447C00E9496008133B1F44B
:1005E0006881633630F46F5F688380E090E00E943A
:1005F000B70081EC91E00E948300888190E00E9426
:100600006F0283EE91E00E9483002DC08233B1F42B
:100610006881662331F06150688380E090E00E9439
:10062000B70081EC91E00E948300888190E00E94F5
:100630006F0283EE91E00E94830015C0833369F45A
:1006400088EE91E00E948300888190E00E946F0212
:1006500083EE91E00E94830006C08D3611F08D3448
:1006600011F40E949900DF91CF9108950F931F9389
:10067000CF938C01C0E00DC0C8010E94E4022FEFAF
:1006800081EE94E0215080409040E1F700C00000EE
:10069000CF5FC23388F3CF911F910F910895CF930D
:1006A000DF9300D000D000D0CDB7DEB74AE0BE0166
:1006B0006F5F7F4F0E943D04CE0101960E9415029C
:1006C00026960FB6F894DEBF0FBECDBFDF91CF9157
:1006D00008950F931F93CF93DF9320919A022223C3
:1006E00009F452C0C42FD62F8C0180E00E94220250
:1006F00060E080E00E940A028DEF91E00E94150206
:10070000C8010E944F0383E092E00E94150281E03D
:100710000E94220260E081E00E940A0286E092E0EC
:100720000E9415028D2F90E00E944F038AEB91E00A
:100730000E941502C230A9F028F4CC2341F0C13048
:1007400059F01EC0C33091F0C430A9F019C08AE03E
:1007500092E00E94150218C08AE791E00E941502FB
:1007600013C080E192E00E9415020EC087E192E082
:100770000E94150209C08FE192E00E94150204C098
:1007800086E292E00E941502DF91CF911F910F91B6
:100790000895CF93DF931F92CDB7DEB70E94530029
:1007A0000E9470000E941A010E94CB000E94300239
:1007B0000E94C30089838CE292E00E9483008091B2
:1007C0009A02811104C08AE592E00E9483000E948F
:1007D00099000E9497018C0169810E942901F82EDD
:1007E0000E944E014F2D6981C8010E9469034F2D5F
:1007F0006981C8010E948902CE0101960E943603D8
:10080000E8CFA1E21A2EAA1BBB1BFD010DC0AA1F37
:10081000BB1FEE1FFF1FA217B307E407F50720F069
:10082000A21BB30BE40BF50B661F771F881F991FE4
:100830001A9469F760957095809590959B01AC012D
:10084000BD01CF0108950E942E04A59F900DB49F75
:10085000900DA49F800D911D11240895A29FB001B9
:10086000B39FC001A39F700D811D1124911DB29FE4
:10087000700D811D1124911D0895BB27FB01552783
:10088000AA27880F991FAA1FA41710F0A41B8395ED
:100890005051B9F7A05DAA3308F0A95DA193009764
:1008A00079F7B111B1931192CB010C945704DC018B
:1008B000FC01672F71917723E1F7329704C07C9197
:1008C0006D9370836291AE17BF07C8F30895F894D3
:0208D000FFCF58
:1008D2000D0A2D2D2D204D454E55202D2D2D0D0A65
:1008E20000313A2061756D656E7461722070756EAB
:1008F200746F206D6564696F0D0A00323A20646975
:10090200736D696E7569722070756E746F206D6596
:1009120064696F0D0A00333A206D6F7374726172ED
:100922002070756E746F206D6564696F0D0A004DDD
:100932003A206D6F7374726172206D656E750D0A67
:100942000043414C454E5441520045535441424CA0
:10095200450056454E545F42414A4F0056454E545B
:100962005F4D4544494F0056454E545F414C544FEC
:10097200004552524F525F53454E534F52005465F9
:100982006D70657261747572613A20002043207C3B
:100992002050756E746F206D6564696F3A20002077
:1009A20043207C20416363696F6E3A2000444154C6
:1009B2004F2C0020430D0A0050756E746F206D6538
:1009C20064696F2061637475616C3A200054656DCF
:1009D200703A00204300504D3A0043414C4F5200C0
:1009E200562E42414A4100562E4D45444941005639
:1009F2002E414C5441004552524F52005369737478
:100A0200656D6120646520636F6E74726F6C206423
:100A1200652074656D706572617475726120696EAE
:100A220069636961646F2E0D0A00417669736F3ADA
:100A3200204C434420493243206E6F20656E636F21
:100A42006E747261646F2E205265766973617220D2
:100A5200646972656363696F6E207920636F6E6586
:0A0A620078696F6E65732E0D0A00AF
:00000001FF
